{
    "_format": "hh-sol-artifact-1",
    "contractName": "WavePortal",
    "sourceName": "contracts/WavePortal.sol",
    "abi": [
        {
            "inputs": [],
            "stateMutability": "nonpayable",
            "type": "constructor"
        },
        {
            "inputs": [],
            "name": "VIP",
            "outputs": [
                {
                    "internalType": "address",
                    "name": "",
                    "type": "address"
                }
            ],
            "stateMutability": "view",
            "type": "function"
        },
        {
            "inputs": [],
            "name": "doWave",
            "outputs": [],
            "stateMutability": "nonpayable",
            "type": "function"
        },
        {
            "inputs": [],
            "name": "getTotalWaves",
            "outputs": [
                {
                    "internalType": "uint256",
                    "name": "",
                    "type": "uint256"
                }
            ],
            "stateMutability": "view",
            "type": "function"
        },
        {
            "inputs": [
                {
                    "internalType": "uint256",
                    "name": "",
                    "type": "uint256"
                }
            ],
            "name": "stats",
            "outputs": [
                {
                    "internalType": "address",
                    "name": "waver",
                    "type": "address"
                },
                {
                    "internalType": "uint256",
                    "name": "waves",
                    "type": "uint256"
                }
            ],
            "stateMutability": "view",
            "type": "function"
        }
    ],
    "bytecode": "0x60806040523480156200001157600080fd5b506200004160405180606001604052806026815260200162000cf1602691396200004760201b620005df1760201c565b620001db565b620000e7816040516024016200005e919062000154565b6040516020818303038152906040527f41304fac000000000000000000000000000000000000000000000000000000007bffffffffffffffffffffffffffffffffffffffffffffffffffffffff19166020820180517bffffffffffffffffffffffffffffffffffffffffffffffffffffffff8381831617835250505050620000ea60201b60201c565b50565b60008151905060006a636f6e736f6c652e6c6f679050602083016000808483855afa5050505050565b6000620001208262000178565b6200012c818562000183565b93506200013e81856020860162000194565b6200014981620001ca565b840191505092915050565b6000602082019050818103600083015262000170818462000113565b905092915050565b600081519050919050565b600082825260208201905092915050565b60005b83811015620001b457808201518184015260208101905062000197565b83811115620001c4576000848401525b50505050565b6000601f19601f8301169050919050565b610b0680620001eb6000396000f3fe608060405234801561001057600080fd5b506004361061004c5760003560e01c806342059c471461005157806389c5e4691461005b5780639a2cdc0814610079578063ad217ae514610097575b600080fd5b6100596100c8565b005b6100636103c1565b604051610070919061086e565b60405180910390f35b610081610540565b60405161008e9190610934565b60405180910390f35b6100b160048036038101906100ac91906107ee565b61058b565b6040516100bf929190610889565b60405180910390f35b6000600180549050141561018b57600060405180604001604052803373ffffffffffffffffffffffffffffffffffffffff16815260200160018152509050600181908060018154018082558091505060019003906000526020600020906002020160009091909190915060008201518160000160006101000a81548173ffffffffffffffffffffffffffffffffffffffff021916908373ffffffffffffffffffffffffffffffffffffffff16021790555060208201518160010155505050610367565b60005b600180549050811015610365573373ffffffffffffffffffffffffffffffffffffffff16600182815481106101ec577f4e487b7100000000000000000000000000000000000000000000000000000000600052603260045260246000fd5b906000526020600020906002020160000160009054906101000a900473ffffffffffffffffffffffffffffffffffffffff1673ffffffffffffffffffffffffffffffffffffffff1614156102a1576001808281548110610275577f4e487b7100000000000000000000000000000000000000000000000000000000600052603260045260246000fd5b90600052602060002090600202016001016000828254610295919061096b565b92505081905550610352565b600060405180604001604052803373ffffffffffffffffffffffffffffffffffffffff16815260200160018152509050600181908060018154018082558091505060019003906000526020600020906002020160009091909190915060008201518160000160006101000a81548173ffffffffffffffffffffffffffffffffffffffff021916908373ffffffffffffffffffffffffffffffffffffffff160217905550602082015181600101555050505b808061035d90610a30565b91505061018e565b505b6001600080828254610379919061096b565b925050819055506103bf6040518060400160405280600d81526020017f257320686173207761766564210000000000000000000000000000000000000081525033610678565b565b6000806000805b6001805490508110156104f8578160018281548110610410577f4e487b7100000000000000000000000000000000000000000000000000000000600052603260045260246000fd5b90600052602060002090600202016001015411156104e55760018181548110610462577f4e487b7100000000000000000000000000000000000000000000000000000000600052603260045260246000fd5b906000526020600020906002020160000160009054906101000a900473ffffffffffffffffffffffffffffffffffffffff169250600181815481106104d0577f4e487b7100000000000000000000000000000000000000000000000000000000600052603260045260246000fd5b90600052602060002090600202016001015491505b80806104f090610a30565b9150506103c8565b506105386040518060400160405280600e81526020017f546865205649502069732025732e00000000000000000000000000000000000081525083610678565b819250505090565b60006105836040518060400160405280601781526020017f5765206861766520256420746f74616c20776176657321000000000000000000815250600054610714565b600054905090565b6001818154811061059b57600080fd5b90600052602060002090600202016000915090508060000160009054906101000a900473ffffffffffffffffffffffffffffffffffffffff16908060010154905082565b610675816040516024016105f391906108b2565b6040516020818303038152906040527f41304fac000000000000000000000000000000000000000000000000000000007bffffffffffffffffffffffffffffffffffffffffffffffffffffffff19166020820180517bffffffffffffffffffffffffffffffffffffffffffffffffffffffff83818316178352505050506107b0565b50565b610710828260405160240161068e9291906108d4565b6040516020818303038152906040527f319af333000000000000000000000000000000000000000000000000000000007bffffffffffffffffffffffffffffffffffffffffffffffffffffffff19166020820180517bffffffffffffffffffffffffffffffffffffffffffffffffffffffff83818316178352505050506107b0565b5050565b6107ac828260405160240161072a929190610904565b6040516020818303038152906040527f9710a9d0000000000000000000000000000000000000000000000000000000007bffffffffffffffffffffffffffffffffffffffffffffffffffffffff19166020820180517bffffffffffffffffffffffffffffffffffffffffffffffffffffffff83818316178352505050506107b0565b5050565b60008151905060006a636f6e736f6c652e6c6f679050602083016000808483855afa5050505050565b6000813590506107e881610ab9565b92915050565b60006020828403121561080057600080fd5b600061080e848285016107d9565b91505092915050565b610820816109c1565b82525050565b60006108318261094f565b61083b818561095a565b935061084b8185602086016109fd565b61085481610aa8565b840191505092915050565b610868816109f3565b82525050565b60006020820190506108836000830184610817565b92915050565b600060408201905061089e6000830185610817565b6108ab602083018461085f565b9392505050565b600060208201905081810360008301526108cc8184610826565b905092915050565b600060408201905081810360008301526108ee8185610826565b90506108fd6020830184610817565b9392505050565b6000604082019050818103600083015261091e8185610826565b905061092d602083018461085f565b9392505050565b6000602082019050610949600083018461085f565b92915050565b600081519050919050565b600082825260208201905092915050565b6000610976826109f3565b9150610981836109f3565b9250827fffffffffffffffffffffffffffffffffffffffffffffffffffffffffffffffff038211156109b6576109b5610a79565b5b828201905092915050565b60006109cc826109d3565b9050919050565b600073ffffffffffffffffffffffffffffffffffffffff82169050919050565b6000819050919050565b60005b83811015610a1b578082015181840152602081019050610a00565b83811115610a2a576000848401525b50505050565b6000610a3b826109f3565b91507fffffffffffffffffffffffffffffffffffffffffffffffffffffffffffffffff821415610a6e57610a6d610a79565b5b600182019050919050565b7f4e487b7100000000000000000000000000000000000000000000000000000000600052601160045260246000fd5b6000601f19601f8301169050919050565b610ac2816109f3565b8114610acd57600080fd5b5056fea26469706673582212206aa7aba3d48e2d0c1a203323f840717c032802a6b69617c6fb4f9ee12c11696064736f6c6343000800003348656c6c6f2c2054686973206973206120636f6e7472616374206d6164652061742033616d21",
    "linkReferences": {},
    "deployedLinkReferences": {}
}